:020000040000FA
:100000000C94E2020C940A030C940A030C940A0365
:100010000C940A030C940A030C940A030C940A032C
:100020000C940A030C940A030C940A030C940A031C
:100030000C940A030C940A030C940A030C940A030C
:100040000C94260F0C940A030C94960F0C94700FCA
:100050000C940A030C940A030C940A030C940A03EC
:100060000C94C80F0C940A0300000000003E5B4F84
:100070005B3E3E6B4F6B3E1C3E7C3E1C183C7E3C08
:10008000181C577D571C1C5E7F5E1C00183C180016
:10009000FFE7C3E7FF0018241800FFE7DBE7FF30A6
:1000A000483A060E2629792926407F050507407F14
:1000B00005253F5A3CE73C5A7F3E1C1C08081C1C87
:1000C0003E7F14227F22145F5F005F5F06097F017D
:1000D0007F006689956A606060606094A2FFA29468
:1000E00008047E040810207E201008082A1C080836
:1000F0001C2A08081E101010100C1E0C1E0C303884
:100100003E3830060E3E0E06000000000000005F84
:1001100000000007000700147F147F14242A7F2AA0
:100120001223130864623649562050000807030062
:10013000001C2241000041221C002A1C7F1C2A08AE
:10014000083E080800807030000808080808000011
:1001500060600020100804023E5149453E00427F85
:10016000400072494949462141494D331814127FD4
:100170001027454545393C4A494931412111090774
:100180003649494936464949291E000014000000F5
:1001900040340000000814224114141414140041C7
:1001A00022140802015909063E415D594E7C121184
:1001B000127C7F494949363E414141227F414141BC
:1001C0003E7F494949417F090909013E4141517337
:1001D0007F0808087F00417F41002040413F017FA8
:1001E000081422417F404040407F021C027F7F0470
:1001F00008107F3E4141413E7F090909063E4151B9
:10020000215E7F09192946264949493203017F01A8
:10021000033F4040403F1F2040201F3F4038403FA9
:10022000631408146303047804036159494D4300BF
:100230007F4141410204081020004141417F0402F6
:10024000010204404040404000030708002054548D
:1002500078407F284444383844444428384444286B
:100260007F385454541800087E090218A4A49C78BE
:100270007F0804047800447D40002040403D007F1A
:100280001028440000417F40007C047804787C08FA
:100290000404783844444438FC18242418182424CE
:1002A00018FC7C08040408485454542404043F44B3
:1002B000243C4040207C1C2040201C3C4030403CE2
:1002C00044281028444C9090907C4464544C440042
:1002D00008364100000077000000413608000201A6
:1002E0000204023C2623263C1EA1A161123A404092
:1002F000207A38545455592155557941225454780F
:1003000042215554784020545579400C1E527212A7
:100310003955555559395454545939555454580030
:1003200000457C410002457D420001457C407D1234
:1003300011127DF0282528F07C5455450020545496
:100340007C547C0A097F4932494949323A44444441
:100350003A324A4848303A4141217A3A424020787C
:10036000009DA0A07D3D4242423D3D4040403D3C7D
:1003700024FF2424487E4943662B2FFC2F2BFF09A2
:1003800029F620C0887E0903205454794100004496
:100390007D413048484A32384040227A007A0A0A81
:1003A000727D0D19317D2629292F282629292926F4
:1003B00030484D4020380808080808080808382F39
:1003C00010C8ACBA2F102834FA00007B00000814C3
:1003D0002A142222142A14085500550055AA55AA99
:1003E00055AAFF55FF55FF000000FF00101010FF39
:1003F00000141414FF001010FF00FF1010F010F094
:10040000141414FC001414F700FF0000FF00FF1484
:1004100014F404FC141417101F10101F101F1414D0
:10042000141F00101010F0000000001F101010101A
:100430001F10101010F010000000FF10101010100E
:1004400010101010FF10000000FF140000FF00FF4C
:1004500000001F10170000FC04F4141417101714E8
:1004600014F404F40000FF00F7141414141414140A
:10047000F700F7141414171410101F101F1414147D
:10048000F4141010F010F000001F101F0000001FE7
:1004900014000000FC140000F010F01010FF10FF1A
:1004A000141414FF141010101F00000000F010FFAF
:1004B000FFFFFFFFF0F0F0F0F0FFFFFF0000000093
:1004C00000FFFF0F0F0F0F0F3844443844FC4A4A17
:1004D0004A347E02020606027E027E0263554941CC
:1004E000633844443C04407E201E2006027E020203
:1004F00099A5E7A5991C2A492A1C4C7201724C3017
:100500004A4D4D303048784830BC625A463D3E49ED
:100510004949007E0101017E2A2A2A2A2A44445F91
:10052000444440514A444040444A51400000FF0185
:1005300003E080FF000008086B6B08361236243693
:10054000060F090F060000181800000010100030F8
:1005500040FF0101001F01011E00191D1712003C80
:100560003C3C3C000000000000000000240027008C
:100570002A00000000080002010000030407000038
:1005800000000000000000000000230026002900F9
:10059000010204081020408001020408102001021A
:1005A0000408102000000000250028002B0004048F
:1005B000040404040404020202020202030303030B
:1005C0000303E31011241FBECFEFD8E0DEBFCDBF81
:1005D00013E0A0E0B1E0ECEFF2E302C005900D9271
:1005E000A835B107D9F724E0A8E5B3E001C01D9212
:1005F000A13CB207E1F712E0C2EED2E004C02197BD
:10060000FE010E944518C13ED107C9F70E94AE11F4
:100610000C947C190C940000FC0120812EBD0DB4BB
:1006200007FEFDCF2EB5FC0120830895833081F0B5
:1006300028F4813099F08230A9F008958730A9F02C
:100640008830C9F08430B1F4809180008F7D03C080
:10065000809180008F7780938000089584B58F7794
:1006600084BD089584B58F7DFBCF8091B0008F77D6
:100670008093B00008958091B0008F7DF9CFCF9323
:10068000DF93282F30E0F901EE58FA4F8491F901F9
:10069000E057FA4FD491F901E255FA4FC491CC23B7
:1006A000A1F081110E941603EC2FF0E0EE0FFF1F66
:1006B000EA57FA4FA591B491EC91ED2381E090E0D7
:1006C00009F480E0DF91CF91089580E090E0FACFC7
:1006D0001F93CF93DF93282F30E0F901EE58FA4FA4
:1006E0008491F901E057FA4FD491F901E255FA4F9C
:1006F000C491CC23A9F0162F81110E941603EC2F70
:10070000F0E0EE0FFF1FEC55FA4FA591B4918FB7B3
:10071000F894EC91111108C0D095DE23DC938FBFC3
:10072000DF91CF911F910895DE2BF8CFCF93DF9308
:1007300090E0FC01E057FA4F249182559A4FFC015A
:1007400084918823D1F090E0880F991FFC01E8592B
:10075000FA4FA591B491FC01EC55FA4FC591D49193
:1007600061110EC09FB7F8948C91E22FE0958E2313
:100770008C932881E223E8839FBFDF91CF91089576
:100780008FB7F894EC91E22BEC938FBFF6CF8E509D
:10079000806480937C0080917A00806480937A00EA
:1007A00080917A0086FDFCCF80917800909179004D
:1007B00008958230910538F0880F991F880F991F8E
:1007C00005970197F1F708959F92AF92BF92CF924C
:1007D000DF92EF92FF920F931F93CF93DF93EC0181
:1007E0006B018885998511E0892B09F010E8F601E5
:1007F000A0808A2D8123992493948111912C2C819E
:100800003D814E815F8160E271EA87E090E00E9465
:100810000F18022FB12CE22EF12C002319F0C70182
:100820000E94D9038A85877F09F04FC08D858F3F4D
:1008300089F09A2D912381E009F480E0891551F027
:10084000EF85F8898F899923D1F19081892B808355
:1008500099249394E989FA898081998D892B8083E1
:10086000002319F0C7010E94D9038E858F3F39F00C
:10087000EB89FC898081988D892309F0B12AE98967
:10088000FA899081898D8095892380838E858F3F19
:1008900011F0F601B08288859985892B09F044C052
:1008A000110F1111BACFDF91CF911F910F91FF90CE
:1008B000EF90DF90CF90BF90AF909F900895908180
:1008C000809589238083912CC5CFE989FA8980811D
:1008D000998D892B8083002319F0C7010E94D903C9
:1008E0008D858F3F49F0EF85F8898F899A2D912367
:1008F000B9F09081892B8083E989FA899081898D6B
:100900008095892380838E858F3F09F4BFCFEB8943
:10091000FC898081988D892309F4B8CFB12AB6CF9C
:10092000908180958923E7CF1695BBCFAF92BF9278
:10093000CF92DF92EF92FF920F931F93CF93DF93AB
:100940001F92CDB7DEB78C015B016A01DC018D918E
:100950009C911197892B39F01296ED91FC91908121
:1009600081819CBD8DBDF80183858F3F19F060E0CA
:100970000E9468037501CA0CDB1CCE14DF04A9F0C9
:10098000D7018D917D018983F80180819181892B27
:1009900029F0CE0101960E940C03EFCFBE016F5FDC
:1009A0007F4FC8010E94E403E8CFD8011B968C91C9
:1009B0008F3F19F061E00E94680381E00F90DF91A2
:1009C000CF911F910F91FF90EF90DF90CF90BF904C
:1009D000AF9008953FB7F8948091F5039091F60396
:1009E000A091F703B091F80326B5A89B05C02F3F4F
:1009F00019F00196A11DB11D3FBFBA2FA92F982F45
:100A00008827BC01CD01620F711D811D911D42E03F
:100A1000660F771F881F991F4A95D1F708958F9207
:100A20009F92AF92BF92CF92DF92EF92FF924B01D3
:100A30005C010E94EA046B017C010E94EA046C19CB
:100A40007D098E099F09683E734081059105A8F3D1
:100A500021E0821A9108A108B10888EEC80E83E04F
:100A6000D81EE11CF11C81149104A104B10429F7E2
:100A7000FF90EF90DF90CF90BF90AF909F908F90BE
:100A80000895AF92BF92CF92DF92EF92FF920F93B1
:100A90001F93CF93DF936C017B018B01040F151F14
:100AA000EB015E01AE18BF08C017D10759F069917C
:100AB000D601ED91FC910190F081E02DC6010995E0
:100AC000892B79F7C501DF91CF911F910F91FF908D
:100AD000EF90DF90CF90BF90AF900895FC01538DC1
:100AE000448D252F30E0842F90E0821B930B541708
:100AF00010F0CF96089501970895FC01918D828D95
:100B0000981761F0A28DAE0FBF2FB11D5D968C912D
:100B1000928D9F5F9F73928F90E008958FEF9FEF6C
:100B20000895FC01918D828D981731F0828DE80F28
:100B3000F11D858D90E008958FEF9FEF0895FC01E2
:100B4000918D228D892F90E0805C9F4F821B9109AF
:100B50008F739927089589EF93E00E949F0521E004
:100B6000892B09F420E0822F089580E090E0892B02
:100B700029F00E94AB0581110C9400000895FC013E
:100B8000A48DA80FB92FB11DA35ABF4F2C91848DEE
:100B900090E001968F739927848FA689B7892C934B
:100BA000A089B1898C91837080648C93938D848D9E
:100BB000981306C00288F389E02D80818F7D8083A1
:100BC0000895EF92FF920F931F93CF93DF93EC0161
:100BD00081E0888F9B8D8C8D98131AC0E889F989E4
:100BE000808185FF15C09FB7F894EE89FF896083E7
:100BF000E889F98980818370806480839FBF81E068
:100C000090E0DF91CF911F910F91FF90EF900895A9
:100C1000F62E0B8D10E00F5F1F4F0F731127E02E84
:100C20008C8D8E110CC00FB607FCFACFE889F989BC
:100C3000808185FFF5CFCE010E94BF05F1CFEB8DFE
:100C4000EC0FFD2FF11DE35AFF4FF0829FB7F89490
:100C50000B8FEA89FB8980818062CFCFCF93DF93AE
:100C6000EC01888D8823B9F0AA89BB89E889F989C4
:100C70008C9185FD03C0808186FD0DC00FB607FCF9
:100C8000F7CF8C9185FFF2CF808185FFEDCFCE012C
:100C90000E94BF05E9CFDF91CF9108950F931F9375
:100CA000CF93DF931F92CDB7DEB78C01698360E0ED
:100CB000FC01868D0E94680341E050E0BE016F5F39
:100CC0007F4FF801838D948D0E9496040F90DF91E1
:100CD000CF911F910F910895CF93C82F87FDCFE734
:100CE000C093B50461E286E994E00E944E066C2F41
:100CF000606886E994E00E944E0660E286E994E02E
:100D0000CF910C944E06CF938091B30487FD13C00E
:100D100061E00E94960360E08091B3040E94680342
:100D200061E070E080E090E00E940F0561E080915A
:100D3000B3040E946803C091B604C83008F0C7E04D
:100D4000C093B60461E286E994E00E944E066C2FDF
:100D5000606186E994E00E944E0660E286E994E0D4
:100D60000E944E068091B5040E946C0660E286E9FE
:100D700094E00E944E066CE086E994E0CF910C94DA
:100D80004E06FF920F931F93CF93DF939091B7047A
:100D9000992339F08091B8048F5F8917E8F5809323
:100DA000B804D091BB04D695D695D69584E5D89F46
:100DB000800111248091BC048695869586958D17B7
:100DC00080F16D2F606486E994E00E944E06C09128
:100DD000B904F090BA046C2F606886E994E00E9430
:100DE0004E0661E08091B4040E9468034F2D50E0EC
:100DF0006C2F70E0461B570B4F5F5F4F600F711FEA
:100E000060507F4F8091B1049091B2040E9496048B
:100E1000DF5F0C5A1F4FCECF1092B8040E9483069A
:100E2000C0CF60E486E994E00E944E0683E580939B
:100E3000B9041092BA048FE28093BB041092BC04F0
:100E4000DF91CF911F910F91FF9008951F93CF9342
:100E5000DF93EC01162F60E20E944E066CE0111148
:100E60006DE0CE01DF91CF911F910C944E06FC01F5
:100E700077FD55C080859185681779070CF04FC0C4
:100E800057FD4DC082859385481759070CF047C020
:100E90008689823009F444C0833009F44EC0813021
:100EA00031F48FE290E0861B970BBA01AC01842FDE
:100EB000A62F93A1691708F4962F93A394A19A17CC
:100EC00008F49A2F94A395A1891708F4982F95A355
:100ED00096A1981708F4982F96A3CA0157FD079674
:100EE000E3E095958795EA95E1F7A4E5A89FF001E1
:100EF000A99FF00D1124E60FF71FE050FF4FCA0124
:100F000068E070E00E94FB1741E050E001C0440F30
:100F10008A95EAF78081232BB9F0842B808308958A
:100F200083E590E0DC01A61BB70BBD018FE290E0EA
:100F3000DC01A41BB50BAD01BACF83E590E0841BA7
:100F4000950BAB01BC01B3CF40958423E7CF089547
:100F5000FC016370668B84819581268137816130C5
:100F600039F0633029F0918780873387228708958D
:100F7000318720879387828708952F923F924F92DF
:100F80005F926F927F928F929F92AF92BF92CF9219
:100F9000DF92EF92FF920F931F93CF93DF93CDB722
:100FA000DEB76A970FB6F894DEBF0FBECDBF9A8F3B
:100FB000898F7A8369834A01D22E18870F8337017C
:100FC000BC2CDC0159962D913C915A972115310585
:100FD00009F015C118968D919C911997681779079A
:100FE0000CF0D7C11A968D919C91481759070CF0B7
:100FF000D0C14C2C512CB6E0CB9E600D711D11243C
:101000007C876B87161617060CF0C3C1EA2DF0E03B
:10101000FA87E98793E0EE0FFF1F9A95E1F7F88BC7
:10102000EF87CF01840F951F181619060CF0B1C178
:10103000A98DBA8D58968C91811104C0BFEABD1557
:1010400008F4D394A98DBA8DED91FC911197028487
:10105000F385E02DCD010995B5E0DB9EC00111249B
:10106000E981FA81FC83EB83312C212C9C012859E6
:101070003F4F388F2F8B4A2D50E05E8B4D8BEF8981
:10108000F88DE20DF31D44919E828D82D12CC12CEE
:1010900069817A81620D731D7A8B698B842F90E050
:1010A0009C8B8B8BE98DFA8DA081B18140FF82C032
:1010B000F1E0BF126FC0AF126DC01C96ED91FC91B4
:1010C0002F813885A4014C0D5D1D69897A89898D30
:1010D0009A8D0995EB89FC89F595E7954E2F5FEF81
:1010E000C51AD50A6D817E818D899E89680F791F09
:1010F0007E836D8398E0C916D10481F6AFEF2A1A7A
:101100003A0AEB81FC81E40DF51DFC83EB83F5E0ED
:101110002F16310409F0B3CF2F81388526153705F6
:10112000B9F0A98DBA8DED91FC91B1E0BB1257C019
:10113000AB1255C069817A816B5F7F4F0088F1895E
:10114000E02D830128E030E0A401898D9A8D099576
:10115000A98DBA8DED91FC9111970688F789E02D44
:10116000CD016A960FB6F894DEBF0FBECDBFDF91FA
:10117000CF911F910F91FF90EF90DF90CF90BF9094
:10118000AF909F908F907F906F905F904F903F9027
:101190002F9009941E96ED91FC91EF80F8840985BB
:1011A0001A8592014D815E816B817C81898D9A8D3A
:1011B000099590CF2F8138852615370509F48ACFF8
:1011C00031E0B31207C0A31205C01C96ED91FC914B
:1011D000930178CF1E96ED91FC917301E0CF6B8562
:1011E0007C85641975090684F785E02D73010F85E8
:1011F00018899201A401898D9A8D0995A9CFF901C9
:1012000034969491329745915491D91AB7E0DB9E68
:10121000400D511D1124F901259134913C8B2B8BEC
:10122000FA0125903490FA013296749031963491F7
:10123000398B329664903196449041E04C1518F009
:101240004A1508F07FC0662D062C000C770B7C83B6
:101250006B83842D042C000C990B9E838D83A98DA8
:10126000BA8DED91FC9111970284F385E02DCD01AB
:101270000995512CD12CC12CEA2DF0E0FA87E98791
:101280002B2D30E03C872B87A401440D511D47FCDA
:101290005A95588F4F8B69817A81660D711D67FC55
:1012A0007A957E876D877989C71608F051CF2C2DE6
:1012B00030E04D815E81420F531FA985BA854A9F58
:1012C000C0014B9F900D5A9F900D1124FC01E80D19
:1012D000F91DF88BEF87852D612C4F89588D420FB2
:1012E000531F5E8B4D8B671408F050C04424439409
:1012F000480E877041F4C1010196EB89FC89E20D2B
:10130000F31DD4901C01D7FE19C0A98DBA8DED91A3
:10131000FC91662D70E0B1E0BB1219C0AB1217C092
:101320002D853E85620F731F0484F585E02D2F8186
:1013300038854D895E89898D9A8D0995DD0C639478
:10134000842DD1CF1E821D821C821B8288CF4B81AF
:101350005C81640F751FAB85BC856A9FC0016B9F64
:10136000900D7A9F900D112469817A81680F791F01
:101370000684F785E02DEF80F88409851A859D01A4
:101380004F855889898D9A8D0995D8CF570CC3946C
:101390008ACF6A960FB6F894DEBF0FBECDBFDF913D
:1013A000CF911F910F91FF90EF90DF90CF90BF9062
:1013B000AF909F908F907F906F905F904F903F90F5
:1013C0002F9008958F929F92AF92CF92EF92FF92BB
:1013D0000F931F93CF93DF93EC01262F898D9A8D66
:1013E000009709F051C06A30D1F41D861C868D89A2
:1013F00048E0849F900111248E859F85820F931F62
:101400009F878E8781E090E0DF91CF911F910F91B0
:10141000FF90EF90CF90AF909F908F9008956D3098
:1014200089F3CC88AD888F898823C1F08C859D8510
:1014300036E0C39E800D911D1124488559854817BB
:10144000590764F44E855F851D861C8638E0A39E8F
:10145000C0011124840F951F9F878E87EA88FB881F
:10146000088919894E855F856C857D85CE010E942E
:10147000BD072C898C859D8546E0249F800D911D9C
:1014800011249D878C87BECF6A3069F41D861C8627
:10149000FC013896E4912D898E859F85E29F800D11
:1014A000911D1124ADCF6D3009F4ACCFFC01349601
:1014B0003491631708F4A6CF3296E491E61708F446
:1014C000A1CFFC01329685909490462F431B342F78
:1014D00047E0349F800C911C1124F4013296349122
:1014E0003196E4913323A9F1EE2399F1CC88F401EC
:1014F0003596E491AD884F89442301F10E2E000CFE
:10150000FF0BE30FF11DCE9EA001CF9E500D1124C5
:101510006C857D85460F571F68857985641775072B
:101520006CF44E855F851D861C86FC013896E4911F
:10153000AE9E400D511D11245F874E87EA88FB88BF
:10154000088919894E855F856C857D85CE010E944D
:10155000BD07F4013496E4912C898C859D85E29F2A
:10156000800D911D11248DCF6F927F928F929F924B
:10157000AF92BF92CF92DF92EF92FF920F931F93A1
:10158000CF93DF93EC016B015A0139014801E881E7
:10159000F9810284F385E02D0995E881F9810288BB
:1015A000F389E02D87019301A501B601CE010995CC
:1015B000A501480D591D41505109E881F981028862
:1015C000F389E02D9301B601CE010995E881F981F7
:1015D0000088F189E02D9401A501B601CE0109959D
:1015E000C60CD71CB60161507109E881F9810088E9
:1015F000F189E02D9401A501CE010995E881F981D9
:101600000688F789E02DCE01DF91CF911F910F91D0
:10161000FF90EF90DF90CF90BF90AF909F908F9012
:101620007F906F9009946F927F928F929F92AF926A
:10163000BF92CF92DF92EF92FF920F931F93CF93BF
:10164000DF935C01EB016A01490138018701DC018C
:10165000ED91FC916217730719F5641675062CF06D
:10166000962D872D3A01C92ED82E960126193709B5
:101670002F5F3F4F048CF58DE02DA301BE01C50106
:101680000995DF91CF911F910F91FF90EF90DF901F
:10169000CF90BF90AF909F908F907F906F90089564
:1016A0004615570591F42617370724F0892D4B016D
:1016B000C22FD82F9E01281939092F5F3F4F068C62
:1016C000F78DE02DA601B401DACF0284F385E02D79
:1016D0000995D501ED91FC910488F589E02D8301F0
:1016E0009401A601BE01C5010995D501ED91FC91BA
:1016F0000688F789E02DC501DF91CF911F910F91E9
:10170000FF90EF90DF90CF90BF90AF909F908F9021
:101710007F906F900994EF92FF920F931F93DC01DB
:101720001A960D911C911B9718962D913C91199723
:10173000ED91FC9100A0F1A1E02D7B0150E040E093
:1017400070E060E009951F910F91FF90EF90089570
:101750004F925F926F927F928F929F92AF92BF92C1
:10176000CF92DF92EF92FF920F931F93CF93DF936D
:101770006C012B015A0139014801DC01ED91FC910A
:101780000284F385E02D0995E201640C751CD601F5
:10179000ED91FC91C615D7055CF40088F189E02D28
:1017A00087019401A501BE01C60109952196EFCFDD
:1017B0000688F789E02DC601DF91CF911F910F9127
:1017C000FF90EF90DF90CF90BF90AF909F908F9061
:1017D0007F906F905F904F9009948F929F92AF92FD
:1017E000BF92CF92DF92EF92FF920F931F93CF930E
:1017F000DF93EC015B014A016901E881F981028410
:10180000F385E02D099595012C0D3D1D21503109E1
:10181000E881F9810488F589E02D78018401A4012B
:10182000B501CE010995E881F9810688F789E02D97
:10183000CE01DF91CF911F910F91FF90EF90DF903C
:10184000CF90BF90AF909F908F9009948F929F926E
:10185000AF92BF92CF92DF92EF92FF920F931F93BE
:10186000CF93DF93EC015B014A0169017801E881C4
:10187000F9810284F385E02D0995C80CD91C8601F5
:1018800001501109E881F9810488F589E02D95015D
:10189000A401B501CE010995E881F9810688F7898F
:1018A000E02DCE01DF91CF911F910F91FF90EF902E
:1018B000DF90CF90BF90AF909F908F900994089544
:1018C000EF92FF920F931F93DC01ED91FC9100A02A
:1018D000F1A1E02D09951F910F91FF90EF900895D0
:1018E0000F931F93DC01ED91FC91068CF78DE02D99
:1018F00009951F910F9108950F931F93DC01ED91AE
:10190000FC91048CF58DE02D09951F910F910895A0
:10191000DC01ED91FC910084F185E02D09942F927A
:101920003F924F925F926F927F928F929F92AF926F
:10193000BF92CF92DF92EF92FF920F931F93CF93BC
:10194000DF9300D000D000D0CDB7DEB73C016A01F4
:101950003E832D83FC82EB825801A41AB50AB7FEA0
:1019600003C0B194A194B1088D809E80861A970A15
:1019700097FE03C09194819491088A149B045CF0B3
:10198000902F812F0D811E819D838E839C2D8D2D07
:101990006B01692F782F0C151D055CF09D818E81E0
:1019A0007E836D83692F782F902F812F8601C92E1A
:1019B000D82E1601201A310A2B012D813E81421AA0
:1019C000530A57FE03C0519441945108710137FEE8
:1019D00003C03FEFE31AF30AF594E7948D819E81EB
:1019E000861797075CF5A1E0B0E0BA83A983C0161B
:1019F000D1064CF1D301ED91FC910484F585E02DE5
:101A00002B813C81A8016D817E818A149B041CF08E
:101A10004D815E81B801C3010995E418F508F7FE10
:101A20000AC02D813E8189819A81280F391F3E830A
:101A30002D83E20CF31C0F5F1F4FD9CF2FEF3FEF29
:101A40003A832983D4CF26960FB6F894DEBF0FBE13
:101A5000CDBFDF91CF911F910F91FF90EF90DF905D
:101A6000CF90BF90AF909F908F907F906F905F903E
:101A70004F903F902F900895089520917F03260F57
:101A80003327331F21323105ECF42091A303FC01ED
:101A900090E080E0243069F082E00895A0917F0317
:101AA0002191AC01415A5C4FA40FB52FB11D2C936D
:101AB0000196861798F380917F03680F60937F03E8
:101AC00080E0089581E008958FEF9FEF08958FEFF4
:101AD0009FEF08958091580390E091958195910929
:101AE0000895CF93DF93CB01EA01642F0E943D0D4F
:101AF000CE01DF91CF910895CF93DF931F92CDB7A1
:101B0000DEB7698361E0CE0101960E943D0D81E060
:101B100090E00F90DF91CF91089590E080E00895DC
:101B2000FC0101900020E9F73197AF01481B590BE8
:101B3000BC0189EF93E00C9441058F929F92AF9284
:101B4000BF920F931F93CF93DF93CDB7DEB7A197CB
:101B50000FB6F894DEBF0FBECDBF19A2423008F415
:101B60004AE08E010F5D1F4F842E912CB12CA12CC9
:101B7000A50194010E940F18E62FB901CA01EA30AD
:101B8000F4F4E05DD801EE938D01232B242B252B5B
:101B900079F790E080E0109719F0CD010E94900D48
:101BA000A1960FB6F894DEBF0FBECDBFDF91CF91E7
:101BB0001F910F91BF90AF909F908F900895E95C17
:101BC000E1CF4F925F926F927F928F929F92AF92EE
:101BD000BF92CF92DF92EF92FF926B017C01AC013A
:101BE0009B010E94F617882381F08CE393E0FF901D
:101BF000EF90DF90CF90BF90AF909F908F907F90AD
:101C00006F905F904F900C94900D46015701E894AF
:101C1000B7F82FEF3FEF4FE75FE7C501B4010E9430
:101C2000F61781110DC02FEF3FEF4FE75FE7C501BA
:101C3000B4010E942C1618161CF480E493E0D7CF50
:101C40002FEF3FEF4FE75FE4C701B6010E94841713
:101C500018161CF484E493E0CACF2FEF3FEF4FE750
:101C60005FECC701B6010E942C1687FDF3CF20E080
:101C700030E0A901C701B6010E942C16B12CA12C9D
:101C800087FF0AC06DE289EF93E00E94E1055C01E5
:101C9000F7FAF094F7F8F0942AE037ED43EA5BE3C3
:101CA000C701B6010E94C0152B013C010E94A3167A
:101CB0006B017C010E94D2169B01AC01C301B201F1
:101CC0000E94BF152B013C014AE0C701B6010E94EA
:101CD0009D0D7C01EA0CFB1C6EE289EF93E00E94F3
:101CE000E105E80EF91E20E030E040E251E4C301D6
:101CF000B2010E9489172B013C010E94A3164B01DF
:101D0000B12CA12C4AE0C501B4010E949D0DE80E42
:101D1000F91EC501B4010E94D2169B01AC01C3019A
:101D2000B2010E94BF1520E030E040E251E40E9481
:101D300089170E94A31690E080E04AE00E949D0D62
:101D40008E0D9F1DFF90EF90DF90CF90BF90AF90D2
:101D50009F908F907F906F905F904F9008950E941A
:101D600070191F93CF93DF9385ED8093BC00809112
:101D70005B0390915C03A0915D03B0915E030796B5
:101D8000A11DB11D23E0B695A795979587952A9536
:101D9000D1F72091BC0024FD03C01092A30352C0D0
:101DA00040915B0350915C0360915D0370915E0311
:101DB000452B462B472B69F30097A105B10541F050
:101DC0002AE22A95F1F700C00197A109B109E1CFF4
:101DD00080915A03C1E0C0935903882399F1D091AF
:101DE000B8001091BA008091BC008A7B8093BC003F
:101DF00060E082E10E94680360E083E10E94680382
:101E00001092A303C093A5031092A40361E082E1A2
:101E10000E94680361E083E10E9468038091B90039
:101E20008E7F8093B9008091B9008D7F8093B90037
:101E300088E48093B80085E48093BC001093BA00D6
:101E4000D093B800DF91CF911F9108951F920F9208
:101E50000FB60F9211242F933F938F939F93AF93BD
:101E6000BF938091F1039091F203A091F303B0919D
:101E7000F4033091F00323E0230F2D3758F501963A
:101E8000A11DB11D2093F0038093F1039093F20301
:101E9000A093F303B093F4038091F5039091F603BC
:101EA000A091F703B091F8030196A11DB11D809395
:101EB000F5039093F603A093F703B093F803BF9153
:101EC000AF919F918F913F912F910F900FBE0F90E7
:101ED0001F90189526E8230F0296A11DB11DD2CFA1
:101EE0001F920F920FB60F9211242F933F934F938F
:101EF0005F936F937F938F939F93AF93BF93EF9372
:101F0000FF9389EF93E00E94BF05FF91EF91BF918E
:101F1000AF919F918F917F916F915F914F913F9181
:101F20002F910F900FBE0F901F9018951F920F9238
:101F30000FB60F9211242F938F939F93EF93FF93DC
:101F4000E0910904F0910A048081E0910F04F0917E
:101F5000100482FD1BC09081809112048F5F8F73EB
:101F600020911304821741F0E0911204F0E0E75051
:101F7000FC4F958F80931204FF91EF919F918F9169
:101F80002F910F900FBE0F901F9018958081F4CF66
:101F90001F920F920FB60F9211242F933F934F93DE
:101FA0005F936F937F938F939F93AF93BF93EF93C1
:101FB000FF938091B900887F803609F44AC0F0F51C
:101FC000883209F4A5C018F5803109F499C0B8F435
:101FD000882309F4F5C0883009F492C0FF91EF918D
:101FE000BF91AF919F918F917F916F915F914F9131
:101FF0003F912F910F900FBE0F901F901895883131
:1020000009F486C0803251F78093A20314C0803453
:1020100009F49BC040F48033B9F38833F9F6809318
:10202000A20385ECAEC0803509F483C0883509F47D
:1020300094C0883499F60E94B10ED0CF883909F443
:102040008AC038F5883729F050F4883611F0803787
:1020500029F683E08093A3031092A10355C088382A
:1020600009F479C0803919F0803809F0B7CF809130
:10207000A103803208F06FC0E091A10381E08E0FD0
:102080008093A1038091BB00F0E0EF57FC4F808369
:102090003BC0803B39F0D0F4803A09F477C0883AED
:1020A00009F09CCF84E08093A303109280031092E8
:1020B0007F03F0E0E0E0099580917F0381110FC07C
:1020C00081E080937F0310925F0309C0803C09F494
:1020D000A8CF883C09F4A5CF883B09F07FCFE091D9
:1020E000800381E08E0F80938003F0E0E15AFC4F83
:1020F00080818093BB009091800380917F0329C0F1
:102100008091C8038093BB0085EC8093BC0066CFB0
:102110009091C7038091C603981758F5E091C703C3
:1021200081E08E0F8093C703F0E0EA55FC4F808179
:10213000E9CFE091C70381E08E0F8093C7038091C0
:10214000BB00F0E0EA55FC4F80839091C70380917B
:10215000C6039817C8F285E8D8CFE091C70381E09D
:102160008E0F8093C7038091BB00F0E0EA55FC4FCF
:1021700080838091A50381115ECF81E08093A403C9
:1021800084EA8093BC001092A30328CF85EC80934F
:10219000BC001092A3038091A103803230F4E0913F
:1021A000A103F0E0EF57FC4F10826091A10370E0B3
:1021B00081E893E0F0E0E0E009951092A1030ECFF2
:1021C0001092A20338CFCF93DF93E9EFF3E01382AD
:1021D000128288EE93E0A0E0B0E084839583A6832A
:1021E000B78382E093E09183808385EC90E09587CC
:1021F000848784EC90E09787868780EC90E0918BD1
:10220000808B81EC90E0938B828B82EC90E0958BBD
:10221000848B86EC90E0978B868B118E128E138EBA
:10222000148EC6E9D4E01B821A8224E530E03D8397
:102230002C8380E390E09F838E83398728879B8758
:102240008A871E8A1D861C861F861E8681E08D8BCE
:102250008C8B2FEF3FEF3B8B2A8B398B288B8F8B0F
:10226000188E1A8E198E84E193E0998388838CE10D
:1022700090E00E944B18DC0111961C921E9213965E
:102280001C921E92129789E01B968C931B978DE0EF
:102290001C968C931C978FEF1E968C931E978BE049
:1022A0001D968C931D97E7EBF5E0E491F0E0EE0FBF
:1022B000FF1FEC55FA4F8591949156969C938E93FF
:1022C0005597E9E9F5E0E4915A96EC935A97E9EBD2
:1022D000F5E0E491F0E0EE0FFF1FEC55FA4F859129
:1022E000949150969C938E931F97EBE9F5E0E491BF
:1022F0005796EC935797EBEBF5E0E491F0E0EE0F97
:10230000FF1FEC55FA4F8591949152969C938E93B2
:102310005197EDE9F5E0E4915996EC93599740E037
:1023200059E06DE370E014964D935D936D937C934B
:10233000179781E090E019969C938E9318971A96C0
:102340001C921A975B961C925B97BC8FAB8F8AE0AE
:102350008E8F88E08D8FDF91CF910895CF93DF939B
:10236000CDB7DEB728970FB6F894DEBF0FBECDBF4E
:10237000789484B5826084BD84B5816084BD85B560
:10238000826085BD85B5816085BD80916E0081606C
:1023900080936E0010928100809181008260809312
:1023A0008100809181008160809381008091800014
:1023B0008160809380008091B10084608093B1003F
:1023C0008091B00081608093B00080917A00846039
:1023D00080937A0080917A00826080937A00809165
:1023E0007A00816080937A0080917A00806880937F
:1023F0007A001092C1002091B1043091B2043A8366
:102400002983D9011B968C918F3F49F061E00E948E
:10241000960361E0E981FA8183850E946803A981BE
:10242000BA818D919C91892B09F46CC21FB7F894E5
:102430008091C903811127C0E8EBF5E08491EAE9B6
:10244000F5E09491E82FF0E0EE0FFF1FE859FA4F06
:10245000A591B491EC91E92321F461E08AE00E9416
:10246000680361E08AE00E9496038CB580618CBDB0
:102470008CB580648CBD61E08DE00E94960361E0C4
:102480008BE00E9496038091C9038F5F8093C903FC
:102490001FBF81E0E981FA81838F61E08091B404FC
:1024A0000E9496038091B30487FD03C061E00E94FF
:1024B000960384E08093B60488E28093B50410927A
:1024C000B7041092B8040E9483061092B904809158
:1024D000BA04833508F483E58093BA041092BB04F0
:1024E0008091BC048F3208F48FE28093BC040E9478
:1024F000C1068CE30E946C06E0E0F1E088EF91E019
:10250000DF019C011D9221503040E1F71092B90487
:102510008091BA04833508F483E58093BA0410925D
:10252000BB048091BC048F3208F48FE28093BC041A
:102530001092A3041092A2041092A5041092A40475
:102540000E94C10660E082E00E94960360E087E09E
:102550000E94960361E084E00E94960361E088E0B7
:102560000E94960361E08CE00E94960361E08DE09A
:102570000E949603E0910904F0910A0482E08083AE
:10258000E0910504F09106041082E0910704F091B7
:1025900008048FEC808310921104E0910D04F091F7
:1025A0000E0486E08083E0910B04F0910C0480819E
:1025B00080618083E0910B04F0910C04808188603D
:1025C0008083E0910B04F0910C048081806880830B
:1025D000E0910B04F0910C0480818F7D808380E07A
:1025E000282E80E0382E82E00E943F039A83898360
:1025F0009093EF038093EE0381E10E94C7035C0197
:1026000080E10E94C7036C018FE00E94C7037C0138
:102610008EE00E94C7038C01B501BB0C880B990B9F
:102620000E94D41620E030E040EA50E40E9489176E
:1026300020E030EC4FE754E40E9431162B013C01BE
:10264000B601DD0C880B990B0E94D41620E030E017
:1026500040EA50E40E94891720E030EC4FE754E450
:102660000E9431164B015C01B701FF0C880B990BDE
:102670000E94D41620E030E040EA50E40E9489171E
:1026800020E030EC4FE754E40E9431166B017C01EE
:10269000B801110F880B990B0E94D41620E030E08E
:1026A00040EA50E40E94891720E030EC4FE754E400
:1026B0000E9431166D837E838F83988789819A81EA
:1026C000892B09F05EC12AE939E949E151E4C301E6
:1026D000B2010E94891720E030E040EC51E40E94F2
:1026E000BF1569837A838B839C836093EA0370931D
:1026F000EB038093EC039093ED032AE939E949E178
:1027000051E4C501B4010E94891720E030E040EC9B
:1027100051E40E94BF154B015C018092E603909248
:10272000E703A092E803B092E9032AE939E949E115
:1027300051E4C701B6010E94891720E030E040EC67
:1027400051E40E94BF156B017C01C092E203D0925C
:10275000E303E092E403F092E5032AE939E949E171
:1027600051E46D817E818F8198850E94891720E0D8
:1027700030E040EC51E40E94BF152B013C01409237
:10278000DE035092DF036092E0037092E10368E49D
:1027900073E08AEC93E00E94751920E030E040EA93
:1027A00051ECC301B2010E942C16181654F420E01B
:1027B00030E040EA51E4C301B2010E94841760E0B6
:1027C00087FF61E084E00E94680320E030E040EA97
:1027D00051ECC701B6010E942C16181654F420E0E3
:1027E00030E040EA51E4C701B6010E94841760E07E
:1027F00087FF61E088E00E94680320E030E040EA63
:1028000051ECC501B4010E942C16181654F420E0B6
:1028100030E040EA51E4C501B4010E94841760E051
:1028200087FF61E08CE00E94680320E030E040EA2E
:1028300051EC69817A818B819C810E942C1618163B
:102840000CF491C061E08DE00E94680387E00E9473
:102850003F03892B09F44AC08AEC93E00E94900D53
:1028600080E593E00E94900D6091DE037091DF039C
:102870008091E0039091E1030E94E10D8EE493E0EA
:102880000E94900D6091E2037091E3038091E40354
:102890009091E5030E94E10D8EE493E00E94900D7B
:1028A0006091E6037091E7038091E8039091E9035A
:1028B0000E94E10D8EE493E00E94900D6091EA0386
:1028C0007091EB038091EC039091ED030E94E10D78
:1028D00082E593E00E94900D85E593E00E94900DC3
:1028E0006CE271E080E090E00E940F052114310459
:1028F00009F479CE0E94AB05882309F474CE0E94B6
:10290000000071CE61E0E981FA8184850E9496031E
:10291000A981BA811A968C911A978B7FF9F460E09D
:102920001C968C910E946803A981BA811D968C9196
:102930008F3F49F061E00E94960361E0E981FA81EE
:1029400085850E946803A981BA811E968C918F3F6C
:1029500009F49FCD60E00E9496039BCD61E0E98180
:10296000FA818485DFCF20E030E040EA51E46981DC
:102970007A818B819C810E94841787FF63CF60E0FE
:1029800062CF25E83BEE41E950E4C301B2010E9469
:1029900089172AE939E949E95FE30E94C01521E86E
:1029A00034E045EB5FE30E94311669837A838B83C1
:1029B0009C836093EA037093EB038093EC03909302
:1029C000ED0325E83BEE41E950E4C501B4010E9466
:1029D00089172AE939E949E95FE30E94C01521E82E
:1029E00034E045EB5FE30E9431164B015C018092BD
:1029F000E6039092E703A092E803B092E90325E88A
:102A00003BEE41E950E4C701B6010E9489172AE96B
:102A100039E949E95FE30E94C01521E834E045EB5C
:102A20005FE30E9431166B017C01C092E203D092F9
:102A3000E303E092E403F092E50325E83BEE41E98D
:102A400050E46D817E818F8198850E9489172AE9E3
:102A500039E949E95FE30E94C01521E834E045EB1C
:102A60005FE30E9431162B013C014092DE0350923D
:102A7000DF036092E0037092E1036BE473E08AECA1
:102A800093E00E94751921E834E045EB5FE3C30150
:102A9000B2010E9489172B013C0120E030E040EA9E
:102AA00051EC0E942C16181654F420E030E040EA55
:102AB00051E4C301B2010E94841760E087FF61E026
:102AC00084E00E94680321E834E045EB5FE3C7013E
:102AD000B6010E9489176B017C0120E030E040EADA
:102AE00051EC0E942C16181654F420E030E040EA15
:102AF00051E4C701B6010E94841760E087FF61E0DE
:102B000088E00E94680321E834E045EB5FE3C501FB
:102B1000B4010E9489176B017C0120E030E040EA9B
:102B200051EC0E942C16181654F420E030E040EAD4
:102B300051E4C701B6010E94841760E087FF61E09D
:102B40008CE00E94680321E834E045EB5FE3698193
:102B50007A818B819C810E9489176B017C0120E026
:102B600030E040EA51EC0E942C1618160CF06ACEA8
:102B700020E030E040EA51E4C701B601FCCE5058F5
:102B8000BB27AA270E94D7150C944A170E943C170E
:102B900038F00E94431720F039F49F3F19F426F4CF
:102BA0000C9439170EF4E095E7FB0C943317E92FDA
:102BB0000E945B1758F3BA176207730784079507DB
:102BC00020F079F4A6F50C947D170EF4E0950B2E09
:102BD000BA2FA02D0B01B90190010C01CA01A0016F
:102BE0001124FF27591B99F0593F50F4503E68F1CA
:102BF0001A16F040A22F232F342F4427585FF3CF0B
:102C0000469537952795A795F0405395C9F77EF4DB
:102C10001F16BA0B620B730B840BBAF09150A1F024
:102C2000FF0FBB1F661F771F881FC2F70EC0BA0FAA
:102C3000621F731F841F48F4879577956795B79532
:102C4000F7959E3F08F0B0CF9395880F08F099272D
:102C5000EE0F9795879508950E940F1708F481E06D
:102C600008950E9445160C944A170E94431758F085
:102C70000E943C1740F029F45F3F29F00C94331771
:102C800051110C947E170C9439170E945B1768F34E
:102C90009923B1F3552391F3951B550BBB27AA2715
:102CA00062177307840738F09F5F5F4F220F331F4F
:102CB000441FAA1FA9F335D00E2E3AF0E0E832D017
:102CC00091505040E695001CCAF72BD0FE2F29D01A
:102CD000660F771F881FBB1F261737074807AB07EC
:102CE000B0E809F0BB0B802DBF01FF2793585F4F61
:102CF0003AF09E3F510578F00C9433170C947E17F0
:102D00005F3FE4F3983ED4F3869577956795B79542
:102D1000F7959F5FC9F7880F911D9695879597F94D
:102D20000895E1E0660F771F881FBB1F62177307C6
:102D30008407BA0720F0621B730B840BBA0BEE1FDB
:102D400088F7E09508950E94631788F09F5798F0E0
:102D5000B92F9927B751B0F0E1F0660F771F881FA0
:102D6000991F1AF0BA95C9F714C0B13091F00E94BA
:102D70007D17B1E008950C947D17672F782F882771
:102D8000B85F39F0B93FCCF3869577956795B395E1
:102D9000D9F73EF490958095709561957F4F8F4F50
:102DA0009F4F0895E89409C097FB3EF49095809555
:102DB000709561957F4F8F4F9F4F9923A9F0F92F01
:102DC00096E9BB279395F695879577956795B7957F
:102DD000F111F8CFFAF4BB0F11F460FF1BC06F5F65
:102DE0007F4F8F4F9F4F16C0882311F096E911C077
:102DF000772321F09EE8872F762F05C0662371F098
:102E000096E8862F70E060E02AF09A95660F771FAB
:102E1000881FDAF7880F9695879597F90895990F87
:102E20000008550FAA0BE0E8FEEF16161706E80794
:102E3000F907C0F012161306E407F50798F0621BB5
:102E4000730B840B950B39F40A2661F0232B242B8A
:102E5000252B21F408950A2609F4A140A6958FEFA9
:102E6000811D811D089597F99F6780E870E060E0FB
:102E700008959FEF80EC089500240A941616170613
:102E800018060906089500240A941216130614065B
:102E900005060895092E0394000C11F4882352F0BE
:102EA000BB0F40F4BF2B11F460FF04C06F5F7F4F76
:102EB0008F4F9F4F089557FD9058440F551F59F05D
:102EC0005F3F71F04795880F97FB991F61F09F3F17
:102ED00079F087950895121613061406551FF2CF40
:102EE0004695F1DF08C0161617061806991FF1CF90
:102EF00086957105610508940895E894BB276627B7
:102F00007727CB0197F908950E940F1708F48FEFE8
:102F100008950E949C170C944A170E943C1738F0A1
:102F20000E94431720F0952311F00C9433170C9452
:102F3000391711240C947E170E945B1770F3959F2C
:102F4000C1F3950F50E0551F629FF001729FBB27A0
:102F5000F00DB11D639FAA27F00DB11DAA1F649F3C
:102F60006627B00DA11D661F829F2227B00DA11DEF
:102F7000621F739FB00DA11D621F839FA00D611D75
:102F8000221F749F3327A00D611D231F849F600D96
:102F9000211D822F762F6A2F11249F5750409AF0BF
:102FA000F1F088234AF0EE0FFF1FBB1F661F771F4B
:102FB000881F91505040A9F79E3F510580F00C9416
:102FC00033170C947E175F3FE4F3983ED4F3869555
:102FD00077956795B795F795E7959F5FC1F7FE2BB6
:102FE000880F911D9695879597F908950E940F1760
:102FF000880B990B089597FB072E16F4009407D0C1
:1030000077FD09D00E94311807FC05D03EF4909559
:1030100081959F4F0895709561957F4F0895A1E226
:103020001A2EAA1BBB1BFD010DC0AA1FBB1FEE1F42
:10303000FF1FA217B307E407F50720F0A21BB30B8D
:10304000E40BF50B661F771F881F991F1A9469F709
:1030500060957095809590959B01AC01BD01CF0165
:103060000895AA1BBB1B51E107C0AA1FBB1FA617CF
:10307000B70710F0A61BB70B881F991F5A95A9F721
:1030800080959095BC01CD010895EE0FFF1F05902E
:10309000F491E02D09940F931F93CF93DF93823027
:1030A000910510F482E090E0E091BF04F091C0043B
:1030B00030E020E0B0E0A0E0309799F42115310530
:1030C00009F44AC0281B390B24303105D8F58A8110
:1030D0009B816115710589F1FB0193838283FE0158
:1030E00011C0408151810281138148175907E0F0D6
:1030F0004817590799F4109761F012960C9312979C
:1031000013961C933296CF01DF91CF911F910F91AF
:1031100008950093BF041093C004F4CF2115310526
:1031200051F04217530738F0A901DB019A01BD01A4
:10313000DF01F801C1CFEF01F9CF9093C004809374
:10314000BF04CDCFFE01E20FF31F81939193225074
:10315000310939832883D7CF2091BD043091BE0433
:10316000232B41F42091FA023091FB023093BE04EC
:103170002093BD042091F8023091F9022115310508
:1031800041F42DB73EB74091FC025091FD02241B43
:10319000350BE091BD04F091BE04E217F307A0F4F3
:1031A0002E1B3F0B2817390778F0AC014E5F5F4F9D
:1031B0002417350748F04E0F5F1F5093BE0440930D
:1031C000BD04819391939FCFF0E0E0E09CCFCF933B
:1031D000DF930097E9F0FC01329713821282A091ED
:1031E000BF04B091C004ED0130E020E01097A1F4DD
:1031F00020813181820F931F2091BD043091BE0444
:103200002817390709F061C0F093BE04E093BD04AC
:10321000DF91CF910895EA01CE17DF07E8F54A81E3
:103220005B819E0141155105B1F7E901FB83EA83FA
:1032300049915991C40FD51FEC17FD0761F48081A6
:1032400091810296840F951FE90199838883828179
:1032500093819B838A83F0E0E0E012968D919C91AC
:1032600013970097B9F52D913C911197CD010296D6
:10327000820F931F2091BD043091BE042817390797
:1032800039F6309751F51092C0041092BF04B093F4
:10329000BE04A093BD04BCCFD383C28340815181BF
:1032A000840F951FC817D90761F44E5F5F4F88815F
:1032B0009981480F591F518340838A819B81938351
:1032C00082832115310509F0B0CFF093C004E0935B
:1032D000BF049ECFFD01DC01C0CF13821282D7CF85
:1032E00081E090E0F8940C947C19FB01DC010190E2
:1032F0000D920020E1F70895F894FFCF0000000040
:1033000000000000000000000000000000000000BD
:1033100000000000000000000000000000000000AD
:103320000000C0E0F0F8FCFCFEFFFCE00000000044
:10333000000000000000000000000000000000008D
:10334000000000000000000000000000000000007D
:10335000000000000000000000000000000000006D
:1033600000F8F8F8F8F8F8F8F8F8F8F8F8F0F0E0FD
:10337000E0C080C0FCFFFFFFFF7F3F7FFFFFFFFF3C
:10338000FF0000000000000000000000000000003E
:10339000000000000000000000000000000000002D
:1033A000000000000000000000000000000000001D
:1033B0000000000000000F1F3F7FFFFFFFFFFFFF27
:1033C000FFFFE7C7C7878F9F9FFFFFFFC1C0E0FCDC
:1033D000FFFFFFFFFFFCFCFCFCFEFEFEFCFCF8F820
:1033E000F0E0C0C00000000000000000000000008D
:1033F00000000000000000000000000000000000CD
:103400000000000000000000000000000080C0E09C
:10341000F1FBFFFFFFFFFF7F1F0F0F87E7FFFFFF9E
:103420001F1F3FF9F8F8F8F8F8F8FDFFFFFFFFFF5E
:10343000FFFFFFFF7F3F0F070100000000000000BB
:10344000000000000000000000000000000000007C
:10345000000000000000000000000000000000F07C
:10346000FEFFFFFFFFFFFFFFFFFFFFFE7E3F3F0F5F
:103470001FFFFFFFFCF0E0F1FFFFFFFFFFFCF0018B
:103480000101010101010100000000000000000035
:10349000000000000000000000000000000000002C
:1034A000000000000000000000000000000000001C
:1034B00000000003030303030303030101010100F0
:1034C000000000000000030F1F3F7F7FFFFFFFFF92
:1034D0007F7F1F03000000000000000000000000CC
:1034E00000000000000000000000000000000000DC
:1034F000000000000000C104800000000000E105A1
:1035000041056E052E069F057D0591050000000012
:10351000E20941058D0D3C0D37075F0C880C600CEE
:103520007C0C700C8F0C5F0CA8072607260CED0B8B
:10353000A80B8B0B130BB40A6E616E00696E6600EC
:103540006F76660044430041430020562C0020560D
:04355000000D0A0060
:107E0000112484B714BE81FFF0D085E080938100F7
:107E100082E08093C00088E18093C10086E0809377
:107E2000C20080E18093C4008EE0C9D0259A86E02C
:107E300020E33CEF91E0309385002093840096BBD3
:107E4000B09BFECF1D9AA8958150A9F7CC24DD24C4
:107E500088248394B5E0AB2EA1E19A2EF3E0BF2EE7
:107E6000A2D0813461F49FD0082FAFD0023811F036
:107E7000013811F484E001C083E08DD089C08234E0
:107E800011F484E103C0853419F485E0A6D080C0E4
:107E9000853579F488D0E82EFF2485D0082F10E0AE
:107EA000102F00270E291F29000F111F8ED06801E7
:107EB0006FC0863521F484E090D080E0DECF843638
:107EC00009F040C070D06FD0082F6DD080E0C81688
:107ED00080E7D80618F4F601B7BEE895C0E0D1E017
:107EE00062D089930C17E1F7F0E0CF16F0E7DF06D8
:107EF00018F0F601B7BEE89568D007B600FCFDCFD4
:107F0000A601A0E0B1E02C9130E011968C91119780
:107F100090E0982F8827822B932B1296FA010C0160
:107F200087BEE89511244E5F5F4FF1E0A038BF0790
:107F300051F7F601A7BEE89507B600FCFDCF97BE46
:107F4000E89526C08437B1F42ED02DD0F82E2BD052
:107F50003CD0F601EF2C8F010F5F1F4F84911BD097
:107F6000EA94F801C1F70894C11CD11CFA94CF0C13
:107F7000D11C0EC0853739F428D08EE10CD085E9AC
:107F80000AD08FE07ACF813511F488E018D01DD067
:107F900080E101D065CF982F8091C00085FFFCCF94
:107FA0009093C60008958091C00087FFFCCF809118
:107FB000C00084FD01C0A8958091C6000895E0E648
:107FC000F0E098E1908380830895EDDF803219F02E
:107FD00088E0F5DFFFCF84E1DECF1F93182FE3DFCA
:107FE0001150E9F7F2DF1F91089580E0E8DFEE27F6
:047FF000FF270994CA
:027FFE00040479
:00000001FF
