:1000000014C0F1C00AC121C020C01FC01EC01DC045
:100010001CC01BC01AC0CDC018C017C016C015C068
:1000200014C013C012C011C0A8C011241FBECFE558
:10003000D1E0DEBFCDBF20E0A0E6B0E001C01D9260
:10004000AE38B207E1F705D177C1DACF20E030E072
:100050004CE053E028173907CCF448BB52BB6FED96
:1000600072E2E2E061507040E040E1F700C0000061
:1000700018BA12BA6FED72E2E2E061507040E040EF
:10008000E1F700C000002F5F3F4FE4CF089524E068
:1000900030E030938B0020938A0026E130E03093EB
:1000A00087002093860068EE73E070938D00609364
:1000B0008C00880F991F880F991F469616D1909330
:1000C000890080938800837099270895EF92FF92AA
:1000D0000F931F93CF93DF937C0104E610E0C0E001
:1000E000D0E08091800090918100C817D90744F436
:1000F000C701CDDFF801819391938F012196F1CF54
:10010000DF91CF911F910F91FF90EF900895E4E65A
:10011000F0E020E030E048E053E064E072E0A1E08D
:100120008091800090918100281739072CF58191EA
:1001300091918130910561F024F4892B69F4A2BB7F
:100140000DC08230910531F0039731F472BB06C0C7
:1001500048BB04C068BB02C048BB52BB8FE79AE1F2
:10016000B6E081509040B040E1F700C0000012BA04
:1001700018BA2F5F3F4FD4CF08951F920F920FB63A
:100180000F9211248F939F93EF93FF93E4E6F0E097
:1001900081E090E0978F868F82E090E091A380A32A
:1001A000FF91EF919F918F910F900FBE0F901F9035
:1001B00018951F920F920FB60F9211248F939F9351
:1001C000EF93FF93E4E6F0E081E090E0978F868F75
:1001D00091A380A3FF91EF919F918F910F900FBEFC
:1001E0000F901F9018951F920F920FB60F92112427
:1001F0008F939F93EF93FF93E4E6F0E081E090E02C
:10020000978F868F11A210A2FF91EF919F918F91EE
:100210000F900FBE0F901F9018951F920F920FB660
:100220000F9211248F939F93EF93FF93E4E6F0E0F6
:1002300081E090E0978F868F83E090E091A380A388
:10024000FF91EF919F918F910F900FBE0F901F9094
:1002500018958CE087BB83E081BB85B78A7085BF2A
:100260008BB780618BBF8BB780628BBF8BB7806889
:100270008BBF8BB780648BBF80B5816080BD2E9AA9
:100280007894C4E0D0E08091600090916100019684
:100290009093610080936000209162003091630030
:1002A0002130310599F030F022303105C9F40EDFEC
:1002B0002EDF16C0D0938100C09380008091820011
:1002C0009091830081309105F1F605C082E090E0C5
:1002D000BDDE82E090E09093630080936200D3CF14
:1002E0001092630010926200CECF97FB072E16F497
:1002F000009406D077FD08D00BD007FC05D03EF463
:10030000909581959F4F0895709561957F4F0895C1
:10031000AA1BBB1B51E107C0AA1FBB1FA617B7072B
:1003200010F0A61BB70B881F991F5A95A9F7809547
:0C0330009095BC01CD010895F894FFCF1A
:00000001FF
