:1000000014C038C151C12CC02BC02AC029C028C07F
:1000100027C026C025C00AC123C022C021C020C0DD
:100020001FC01EC01DC01CC0DDC011241FBECFE5F7
:10003000D1E0DEBFCDBF10E0A0E6B0E0E0E9F4E043
:1000400002C005900D92A236B107D9F720E0A2E6D2
:10005000B0E001C01D92AC38B207E1F741D116C241
:10006000CFCF20E030E048E153E02817390724F5EE
:1000700018BA12BA6FE372E4EFE061507040E040EA
:10008000E1F700C0000048BB52BB6FE774E8EEE147
:1000900061507040E040E1F700C0000018BA12BAA9
:1000A0006FE372E4EFE061507040E040E1F700C0C0
:1000B00000002F5F3F4FD9CF0895CF93DF93BC014E
:1000C000E4E6F0E040E050E080E198E0A3E0B2E058
:1000D000C1E0461757077CF5219131912130310558
:1000E00069F024F4232B71F4C2BB0EC02230310519
:1000F00039F02330310531F4B2BB06C088BB04C0EF
:1001000098BB02C098BBA2BB2FE734E8DEE12150C8
:100110003040D040E1F700C0000012BA18BA2FE317
:1001200032E4DFE021503040D040E1F700C0000071
:100130004F5F5F4FCECFDF91CF910895FC012081BB
:100140003181C9019695879520FD03C091838083F5
:1001500004C0682779277183608380819181089525
:100160008EED9CEB90938B0080938A0089E897E654
:1001700090938900809388000895CF93DF936CE576
:1001800073ED8AE890E0DADF6CE573ED8AE890E0E1
:10019000D5DFEC0163EE72EC88E890E0CFDF8C27CE
:1001A0009D2783709927DF91CF910895EF92FF9259
:1001B0000F931F93CF93DF937C0104E610E0C0E020
:1001C000D0E0CE15DF053CF4D8DFF80181939193A0
:1001D0008F012196F6CFDF91CF911F910F91FF9064
:1001E000EF9008951F920F920FB60F9211248F93E4
:1001F0009F938091600090916100892B31F481E0A0
:1002000090E0909383008093820082E090E090934E
:1002100085008093840010926100109260009F918D
:100220008F910F900FBE0F901F9018951F920F92F5
:100230000FB60F9211248F939F938091600090913D
:100240006100892B31F481E090E0909383008093EA
:10025000820081E090E0909385008093840010926A
:100260006100109260009F918F910F900FBE0F90D0
:100270001F9018951F920F920FB60F9211248F9313
:100280009F93EF93FF93E4E6F0E081E090E0978F97
:10029000868F11A210A2FF91EF919F918F910F90E5
:1002A0000FBE0F901F9018951F920F920FB60F92CE
:1002B00011248F939F93EF93FF93E4E6F0E081E0A6
:1002C00090E0978F868F83E090E091A380A3FF91C9
:1002D000EF919F918F910F900FBE0F901F901895E7
:1002E00088E187BB83E081BB85B78A7085BF8BB708
:1002F00080618BBF8BB780628BBF8BB780688BBFF1
:100300008BB780648BBF80B5816080BD2E9A789456
:1003100027DFC1E0D0E003E010E054E0E52EF12C4F
:1003200065E0C62ED12C80916200909163008230EE
:10033000910581F158F40097E9F0019709F0A1C007
:1003400082E090E08EDE82E090E01FC08430910574
:1003500009F46CC070F1059709F093C083E090E058
:1003600080DE1092830010928200D0936100C093CF
:10037000600087C0F0928100E0928000809182004E
:10038000909183008130910571F690936300809382
:100390006200C9CF809180009091810007DF809139
:1003A00080009091810089DE10928300109282007B
:1003B0005BC020918200309183002130310529F506
:1003C0008091860090918700FC01EE0FFF1FEC5991
:1003D000FF4F6091840070918500408151816417C6
:1003E000750771F4019690938700809386001092B0
:1003F000830010928200309361002093600005C05A
:10040000D0926300C09262008ECF20918000309124
:10041000810080918600909187008217930708F4ED
:1004200082CFF0926300E09262007DCFA0908000C6
:10043000B09081008EE0A816B1048CF49EDEF50128
:10044000EE0FFF1FEC59FF4F918380838091800056
:10045000909181000196909381008093800080911B
:1004600080009091810029DE109287001092860012
:10047000D0936100C093600010936300009362000A
:1004800052CF10926300109262004DCFF894FFCFCC
:02049000010069
:00000001FF
