:1000000014C03FC023C021C020C01FC01EC01DC0DF
:100010001CC01BC01AC03BC018C017C016C015C0FA
:1000200014C013C012C011C038C011241FBECFE5C8
:10003000D1E0DEBFCDBF20E0A0E6B0E001C01D9260
:10004000A438B207E1F72FD047C0DACF1F920F9242
:100050000FB60F92112488E018BA2FE936E891E024
:10006000215030409040E1F700C0000088BB2FE9EC
:1000700036E891E0215030409040E1F700C00000A8
:10008000EBCF1F920F920FB60F921124DFDF1F925A
:100090000F920FB60F921124D9DF1F920F920FB655
:1000A0000F921124D3DF8CE087BB83E081BB85B73F
:1000B0008A7085BF8BB780618BBF8BB780628BBF27
:1000C0008BB780688BBF8BB780648BBF80B5816036
:0C00D00080BD2E9A7894FFCFF894FFCFEB
:00000001FF
