:1000000014C01BC134C121C020C01FC01EC01DC0F0
:100010001CC01BC01AC0F7C018C017C016C015C03E
:1000200014C013C012C011C0D2C011241FBECFE52E
:10003000D1E0DEBFCDBF20E0A0E6B0E001C01D9260
:10004000A838B207E1F72FD181C1DACF20E030E044
:1000500048E153E02817390724F518BA12BA6FE3BC
:1000600072E4EFE061507040E040E1F700C0000052
:1000700048BB52BB6FE774E8EEE161507040E0406E
:10008000E1F700C0000018BA12BA6FE372E4EFE0C3
:1000900061507040E040E1F700C000002F5F3F4F2B
:1000A000D9CF0895CF93DF93BC01E2E6F0E040E0C2
:1000B00050E080E198E0A3E0B2E0C1E046175707C6
:1000C0007CF5219131912130310569F024F4232B05
:1000D00071F4C2BB0EC02230310539F02330310536
:1000E00031F4B2BB06C088BB04C098BB02C098BB49
:1000F000A2BB2FE734E8DEE121503040D040E1F7E9
:1001000000C0000012BA18BA2FE332E4DFE0215039
:100110003040D040E1F700C000004F5F5F4FCECFCE
:10012000DF91CF910895FC0120813181C90196951D
:10013000879520FD03C09183808304C068277927B9
:10014000718360838081918108958EED9CEB909303
:1001500087008093860089E897E6909385008093D6
:1001600084000895CF93DF936CE573ED86E890E00B
:10017000DADF6CE573ED86E890E0D5DFEC0163EE45
:1001800072EC84E890E0CFDF8C279D27837099275D
:10019000DF91CF910895EF92FF920F931F93CF932A
:1001A000DF937C0102E610E0C0E0D0E0CE15DF0571
:1001B0003CF4D8DFF801819391938F012196F6CF1B
:1001C000DF91CF911F910F91FF90EF9008951F92B3
:1001D0000F920FB60F9211248F939F93EF93FF937B
:1001E000E2E6F0E081E090E0978F868F82E090E099
:1001F00091A380A3FF91EF919F918F910F900FBEDC
:100200000F901F9018951F920F920FB60F92112406
:100210008F939F93EF93FF93E2E6F0E081E090E00D
:10022000978F868F91A380A3FF91EF919F918F91DC
:100230000F900FBE0F901F9018951F920F920FB640
:100240000F9211248F939F93EF93FF93E2E6F0E0D8
:1002500081E090E0978F868F11A210A2FF91EF911D
:100260009F918F910F900FBE0F901F9018951F9226
:100270000F920FB60F9211248F939F93EF93FF93DA
:10028000E2E6F0E081E090E0978F868F83E090E0F7
:1002900091A380A3FF91EF919F918F910F900FBE3B
:1002A0000F901F90189588E187BB83E081BB85B7CD
:1002B0008A7085BF8BB780618BBF8BB780628BBF25
:1002C0008BB780688BBF8BB780648BBF80B5816034
:1002D00080BD2E9A789439DFC4E0D0E08091600030
:1002E000909161008130910511F1A8F0029749F5D4
:1002F00080917E0090917F004EDF80917E009091F2
:100300007F00D0DE10926100109260001092810098
:1003100010928000E3CFD0937F00C0937E00809145
:1003200080009091810081309105C1F605C082E086
:1003300090E08CDE82E090E090936100809360001A
:10034000CDCF1092610010926000C8CFF894FFCF1B
:00000001FF
