:1000000014C01BC01AC019C018C017C016C015C034
:1000100014C013C012C011C010C00FC00EC00DC05C
:100020000CC00BC00AC009C008C011241FBECFE518
:10003000D1E0DEBFCDBF02D082C0E2CF31E022E00E
:1000400094E088E037BB18BA4FE352E46FE04150C8
:1000500050406040E1F700C0000038BB4FE352E47D
:100060006FE0415050406040E1F700C0000018BA16
:100070004FE352E46FE0415050406040E1F700C070
:10008000000027BB18BA4FE352E46FE041505040E4
:100090006040E1F700C0000028BB4FE352E46FE08E
:1000A000415050406040E1F700C0000018BA4FE3F3
:1000B00052E46FE0415050406040E1F700C0000062
:1000C00097BB18BA4FE352E46FE041505040604094
:1000D000E1F700C0000098BB4FE352E46FE04150ED
:1000E00050406040E1F700C0000018BA4FE352E40E
:1000F0006FE0415050406040E1F700C0000087BB16
:1001000018BA4FE352E46FE0415050406040E1F7CD
:1001100000C0000088BB4FE352E46FE04150504004
:100120006040E1F700C0000018BA4FE352E46FE00E
:10013000415050406040E1F700C0000083CFF89488
:02014000FFCFEF
:00000001FF
